{
  "_format": "hh-sol-artifact-1",
  "contractName": "ERC721",
  "sourceName": "contracts/erc-721.sol",
  "abi": [
    {
      "anonymous": false,
      "inputs": [
        {
          "indexed": true,
          "internalType": "address",
          "name": "_owner",
          "type": "address"
        },
        {
          "indexed": true,
          "internalType": "address",
          "name": "_approved",
          "type": "address"
        },
        {
          "indexed": true,
          "internalType": "uint256",
          "name": "_tokenId",
          "type": "uint256"
        }
      ],
      "name": "Approval",
      "type": "event"
    },
    {
      "anonymous": false,
      "inputs": [
        {
          "indexed": true,
          "internalType": "address",
          "name": "_owner",
          "type": "address"
        },
        {
          "indexed": true,
          "internalType": "address",
          "name": "_operator",
          "type": "address"
        },
        {
          "indexed": false,
          "internalType": "bool",
          "name": "_approved",
          "type": "bool"
        }
      ],
      "name": "ApprovalForAll",
      "type": "event"
    },
    {
      "anonymous": false,
      "inputs": [
        {
          "indexed": true,
          "internalType": "address",
          "name": "_from",
          "type": "address"
        },
        {
          "indexed": true,
          "internalType": "address",
          "name": "_to",
          "type": "address"
        },
        {
          "indexed": true,
          "internalType": "uint256",
          "name": "_tokenId",
          "type": "uint256"
        }
      ],
      "name": "Transfer",
      "type": "event"
    },
    {
      "inputs": [
        {
          "internalType": "address",
          "name": "approved",
          "type": "address"
        },
        {
          "internalType": "uint256",
          "name": "tokenId",
          "type": "uint256"
        }
      ],
      "name": "approve",
      "outputs": [],
      "stateMutability": "payable",
      "type": "function"
    },
    {
      "inputs": [
        {
          "internalType": "address",
          "name": "owner",
          "type": "address"
        }
      ],
      "name": "balanceOf",
      "outputs": [
        {
          "internalType": "uint256",
          "name": "",
          "type": "uint256"
        }
      ],
      "stateMutability": "view",
      "type": "function"
    },
    {
      "inputs": [
        {
          "internalType": "uint256",
          "name": "tokenId",
          "type": "uint256"
        }
      ],
      "name": "getApproved",
      "outputs": [
        {
          "internalType": "address",
          "name": "",
          "type": "address"
        }
      ],
      "stateMutability": "view",
      "type": "function"
    },
    {
      "inputs": [
        {
          "internalType": "address",
          "name": "owner",
          "type": "address"
        },
        {
          "internalType": "address",
          "name": "operator",
          "type": "address"
        }
      ],
      "name": "isApprovedForAll",
      "outputs": [
        {
          "internalType": "bool",
          "name": "",
          "type": "bool"
        }
      ],
      "stateMutability": "view",
      "type": "function"
    },
    {
      "inputs": [
        {
          "internalType": "uint256",
          "name": "tokenId",
          "type": "uint256"
        }
      ],
      "name": "ownerOf",
      "outputs": [
        {
          "internalType": "address",
          "name": "",
          "type": "address"
        }
      ],
      "stateMutability": "view",
      "type": "function"
    },
    {
      "inputs": [
        {
          "internalType": "address",
          "name": "from",
          "type": "address"
        },
        {
          "internalType": "address",
          "name": "to",
          "type": "address"
        },
        {
          "internalType": "uint256",
          "name": "tokenId",
          "type": "uint256"
        }
      ],
      "name": "safeTransferFrom",
      "outputs": [],
      "stateMutability": "payable",
      "type": "function"
    },
    {
      "inputs": [
        {
          "internalType": "address",
          "name": "from",
          "type": "address"
        },
        {
          "internalType": "address",
          "name": "to",
          "type": "address"
        },
        {
          "internalType": "uint256",
          "name": "tokenId",
          "type": "uint256"
        },
        {
          "internalType": "bytes",
          "name": "data",
          "type": "bytes"
        }
      ],
      "name": "safeTransferFrom",
      "outputs": [],
      "stateMutability": "payable",
      "type": "function"
    },
    {
      "inputs": [
        {
          "internalType": "address",
          "name": "operator",
          "type": "address"
        },
        {
          "internalType": "bool",
          "name": "approved",
          "type": "bool"
        }
      ],
      "name": "setApprovalForAll",
      "outputs": [],
      "stateMutability": "nonpayable",
      "type": "function"
    },
    {
      "inputs": [
        {
          "internalType": "bytes4",
          "name": "interfaceId",
          "type": "bytes4"
        }
      ],
      "name": "supportInterface",
      "outputs": [
        {
          "internalType": "bool",
          "name": "",
          "type": "bool"
        }
      ],
      "stateMutability": "pure",
      "type": "function"
    },
    {
      "inputs": [
        {
          "internalType": "address",
          "name": "from",
          "type": "address"
        },
        {
          "internalType": "address",
          "name": "to",
          "type": "address"
        },
        {
          "internalType": "uint256",
          "name": "tokenId",
          "type": "uint256"
        }
      ],
      "name": "transferFrom",
      "outputs": [],
      "stateMutability": "payable",
      "type": "function"
    }
  ],
  "bytecode": "0x608060405234801561001057600080fd5b50610a86806100206000396000f3fe6080604052600436106100915760003560e01c806370a082311161005957806370a082311461012e57806375e79be61461015c578063a22cb4651461019d578063b88d4fde146101bd578063e985e9c5146101d057610091565b8063081812fc14610096578063095ea7b3146100d357806323b872dd146100e857806342842e0e146100fb5780636352211e1461010e575b600080fd5b3480156100a257600080fd5b506100b66100b13660046109ff565b6101f0565b6040516001600160a01b0390911681526020015b60405180910390f35b6100e66100e13660046109ae565b610278565b005b6100e66100f6366004610864565b610360565b6100e6610109366004610864565b6105d9565b34801561011a57600080fd5b506100b66101293660046109ff565b6105f9565b34801561013a57600080fd5b5061014e610149366004610811565b61065c565b6040519081526020016100ca565b34801561016857600080fd5b5061018d6101773660046109d7565b6001600160e01b0319166380ac58cd60e01b1490565b60405190151581526020016100ca565b3480156101a957600080fd5b506100e66101b8366004610974565b6106c2565b6100e66101cb36600461089f565b610777565b3480156101dc57600080fd5b5061018d6101eb366004610832565b6107cc565b6000818152600360205260408120546001600160a01b03166102595760405162461bcd60e51b815260206004820152601760248201527f546f6b656e20696420646f6573206e6f7420657869737400000000000000000060448201526064015b60405180910390fd5b506000818152600360205260409020546001600160a01b03165b919050565b6000610283826105f9565b9050336001600160a01b03821614806102a157506102a181336107cc565b6103045760405162461bcd60e51b815260206004820152602e60248201527f6d73672e73656e646572206973206e6f7420746865206f6e776572206f72206960448201526d1cc81b9bdd08185c1c1c9bdd995960921b6064820152608401610250565b60008281526003602052604080822080546001600160a01b0319166001600160a01b0387811691821790925591518593918516917f8c5be1e5ebec7d5bd14f71427d1e84f3dd0314c0f7b2291e5b200ac8c7c3b92591a4505050565b600061036b826105f9565b9050336001600160a01b0382161480610394575033610389836101f0565b6001600160a01b0316145b806103a457506103a481336107cc565b61040d5760405162461bcd60e51b815260206004820152603460248201527f4d73672e73656e646572206973206e6f7420746865206f776e6572206f72206160448201527338383937bb32b2103337b9103a3930b739b332b960611b6064820152608401610250565b806001600160a01b0316846001600160a01b03161461046e5760405162461bcd60e51b815260206004820152601c60248201527f46726f6d2061646472657373206973206e6f7420617070726f766564000000006044820152606401610250565b6001600160a01b0383166104b95760405162461bcd60e51b8152602060048201526012602482015271546f2061646472657373206973207a65726f60701b6044820152606401610250565b6000828152600160205260409020546001600160a01b03166105155760405162461bcd60e51b8152602060048201526015602482015274151bdad95b881a59081a5cc81b9bdd08195e1a5cdd605a1b6044820152606401610250565b610520600083610278565b6001600160a01b0384166000908152602081905260408120805460019290610549908490610a17565b90915550506001600160a01b0383166000908152602081905260408120805460019290610577908490610a17565b909155505060008281526001602052604080822080546001600160a01b0319166001600160a01b0387811691821790925591518593918816917fddf252ad1be2c89b69c2b068fc378daa952ba7f163c4a11628f55a4df523b3ef91a450505050565b6105f483838360405180602001604052806000815250610777565b505050565b6000818152600160205260408120546001600160a01b0316806106565760405162461bcd60e51b8152602060048201526015602482015274151bdad95b881a59081a5cc81b9bdd08195e1a5cdd605a1b6044820152606401610250565b92915050565b60006001600160a01b0382166106a65760405162461bcd60e51b815260206004820152600f60248201526e41646472657373206973207a65726f60881b6044820152606401610250565b506001600160a01b031660009081526020819052604090205490565b6001600160a01b03821661070b5760405162461bcd60e51b815260206004820152601060248201526f4f70657261746f72206973207a65726f60801b6044820152606401610250565b3360008181526002602090815260408083206001600160a01b03871680855290835292819020805460ff191686151590811790915590519081529192917f17307eab39ab6107e8899845ad3d59bd9653f200f220920489ca2b5937696c31910160405180910390a35050565b80516107bb5760405162461bcd60e51b815260206004820152601360248201527244617461206d757374206e6f7420656d70747960681b6044820152606401610250565b6107c6848484610360565b50505050565b6001600160a01b03918216600090815260026020908152604080832093909416825291909152205460ff1690565b80356001600160a01b038116811461027357600080fd5b600060208284031215610822578081fd5b61082b826107fa565b9392505050565b60008060408385031215610844578081fd5b61084d836107fa565b915061085b602084016107fa565b90509250929050565b600080600060608486031215610878578081fd5b610881846107fa565b925061088f602085016107fa565b9150604084013590509250925092565b600080600080608085870312156108b4578081fd5b6108bd856107fa565b93506108cb602086016107fa565b925060408501359150606085013567ffffffffffffffff808211156108ee578283fd5b818701915087601f830112610901578283fd5b81358181111561091357610913610a3a565b604051601f8201601f19908116603f0116810190838211818310171561093b5761093b610a3a565b816040528281528a6020848701011115610953578586fd5b82602086016020830137918201602001949094529598949750929550505050565b60008060408385031215610986578182fd5b61098f836107fa565b9150602083013580151581146109a3578182fd5b809150509250929050565b600080604083850312156109c0578182fd5b6109c9836107fa565b946020939093013593505050565b6000602082840312156109e8578081fd5b81356001600160e01b03198116811461082b578182fd5b600060208284031215610a10578081fd5b5035919050565b600082821015610a3557634e487b7160e01b81526011600452602481fd5b500390565b634e487b7160e01b600052604160045260246000fdfea264697066735822122024341fe8d9642994daa7bf1def16fba465c019e2148e9f4bd778beaf9cf5cb5a64736f6c63430008020033",
  "linkReferences": {},
  "deployedLinkReferences": {}
}